{
  "contractName": "VideoNFT",
  "abi": [
    {
      "inputs": [],
      "stateMutability": "nonpayable",
      "type": "constructor"
    },
    {
      "anonymous": false,
      "inputs": [
        {
          "indexed": true,
          "internalType": "address",
          "name": "account",
          "type": "address"
        },
        {
          "indexed": true,
          "internalType": "address",
          "name": "operator",
          "type": "address"
        },
        {
          "indexed": false,
          "internalType": "bool",
          "name": "approved",
          "type": "bool"
        }
      ],
      "name": "ApprovalForAll",
      "type": "event"
    },
    {
      "anonymous": false,
      "inputs": [
        {
          "indexed": true,
          "internalType": "address",
          "name": "previousOwner",
          "type": "address"
        },
        {
          "indexed": true,
          "internalType": "address",
          "name": "newOwner",
          "type": "address"
        }
      ],
      "name": "OwnershipTransferred",
      "type": "event"
    },
    {
      "anonymous": false,
      "inputs": [
        {
          "indexed": true,
          "internalType": "address",
          "name": "operator",
          "type": "address"
        },
        {
          "indexed": true,
          "internalType": "address",
          "name": "from",
          "type": "address"
        },
        {
          "indexed": true,
          "internalType": "address",
          "name": "to",
          "type": "address"
        },
        {
          "indexed": false,
          "internalType": "uint256[]",
          "name": "ids",
          "type": "uint256[]"
        },
        {
          "indexed": false,
          "internalType": "uint256[]",
          "name": "values",
          "type": "uint256[]"
        }
      ],
      "name": "TransferBatch",
      "type": "event"
    },
    {
      "anonymous": false,
      "inputs": [
        {
          "indexed": true,
          "internalType": "address",
          "name": "operator",
          "type": "address"
        },
        {
          "indexed": true,
          "internalType": "address",
          "name": "from",
          "type": "address"
        },
        {
          "indexed": true,
          "internalType": "address",
          "name": "to",
          "type": "address"
        },
        {
          "indexed": false,
          "internalType": "uint256",
          "name": "id",
          "type": "uint256"
        },
        {
          "indexed": false,
          "internalType": "uint256",
          "name": "value",
          "type": "uint256"
        }
      ],
      "name": "TransferSingle",
      "type": "event"
    },
    {
      "anonymous": false,
      "inputs": [
        {
          "indexed": false,
          "internalType": "string",
          "name": "value",
          "type": "string"
        },
        {
          "indexed": true,
          "internalType": "uint256",
          "name": "id",
          "type": "uint256"
        }
      ],
      "name": "URI",
      "type": "event"
    },
    {
      "inputs": [
        {
          "internalType": "address",
          "name": "account",
          "type": "address"
        },
        {
          "internalType": "uint256",
          "name": "id",
          "type": "uint256"
        }
      ],
      "name": "balanceOf",
      "outputs": [
        {
          "internalType": "uint256",
          "name": "",
          "type": "uint256"
        }
      ],
      "stateMutability": "view",
      "type": "function"
    },
    {
      "inputs": [
        {
          "internalType": "address[]",
          "name": "accounts",
          "type": "address[]"
        },
        {
          "internalType": "uint256[]",
          "name": "ids",
          "type": "uint256[]"
        }
      ],
      "name": "balanceOfBatch",
      "outputs": [
        {
          "internalType": "uint256[]",
          "name": "",
          "type": "uint256[]"
        }
      ],
      "stateMutability": "view",
      "type": "function"
    },
    {
      "inputs": [
        {
          "internalType": "address",
          "name": "account",
          "type": "address"
        },
        {
          "internalType": "address",
          "name": "operator",
          "type": "address"
        }
      ],
      "name": "isApprovedForAll",
      "outputs": [
        {
          "internalType": "bool",
          "name": "",
          "type": "bool"
        }
      ],
      "stateMutability": "view",
      "type": "function"
    },
    {
      "inputs": [],
      "name": "name",
      "outputs": [
        {
          "internalType": "string",
          "name": "",
          "type": "string"
        }
      ],
      "stateMutability": "view",
      "type": "function"
    },
    {
      "inputs": [],
      "name": "owner",
      "outputs": [
        {
          "internalType": "address",
          "name": "",
          "type": "address"
        }
      ],
      "stateMutability": "view",
      "type": "function"
    },
    {
      "inputs": [],
      "name": "renounceOwnership",
      "outputs": [],
      "stateMutability": "nonpayable",
      "type": "function"
    },
    {
      "inputs": [
        {
          "internalType": "address",
          "name": "from",
          "type": "address"
        },
        {
          "internalType": "address",
          "name": "to",
          "type": "address"
        },
        {
          "internalType": "uint256[]",
          "name": "ids",
          "type": "uint256[]"
        },
        {
          "internalType": "uint256[]",
          "name": "amounts",
          "type": "uint256[]"
        },
        {
          "internalType": "bytes",
          "name": "data",
          "type": "bytes"
        }
      ],
      "name": "safeBatchTransferFrom",
      "outputs": [],
      "stateMutability": "nonpayable",
      "type": "function"
    },
    {
      "inputs": [
        {
          "internalType": "address",
          "name": "from",
          "type": "address"
        },
        {
          "internalType": "address",
          "name": "to",
          "type": "address"
        },
        {
          "internalType": "uint256",
          "name": "id",
          "type": "uint256"
        },
        {
          "internalType": "uint256",
          "name": "amount",
          "type": "uint256"
        },
        {
          "internalType": "bytes",
          "name": "data",
          "type": "bytes"
        }
      ],
      "name": "safeTransferFrom",
      "outputs": [],
      "stateMutability": "nonpayable",
      "type": "function"
    },
    {
      "inputs": [
        {
          "internalType": "address",
          "name": "operator",
          "type": "address"
        },
        {
          "internalType": "bool",
          "name": "approved",
          "type": "bool"
        }
      ],
      "name": "setApprovalForAll",
      "outputs": [],
      "stateMutability": "nonpayable",
      "type": "function"
    },
    {
      "inputs": [
        {
          "internalType": "bytes4",
          "name": "interfaceId",
          "type": "bytes4"
        }
      ],
      "name": "supportsInterface",
      "outputs": [
        {
          "internalType": "bool",
          "name": "",
          "type": "bool"
        }
      ],
      "stateMutability": "view",
      "type": "function"
    },
    {
      "inputs": [
        {
          "internalType": "address",
          "name": "newOwner",
          "type": "address"
        }
      ],
      "name": "transferOwnership",
      "outputs": [],
      "stateMutability": "nonpayable",
      "type": "function"
    },
    {
      "inputs": [
        {
          "internalType": "uint256",
          "name": "",
          "type": "uint256"
        }
      ],
      "name": "uri",
      "outputs": [
        {
          "internalType": "string",
          "name": "",
          "type": "string"
        }
      ],
      "stateMutability": "view",
      "type": "function"
    },
    {
      "inputs": [
        {
          "internalType": "string",
          "name": "_newuri",
          "type": "string"
        }
      ],
      "name": "setURI",
      "outputs": [],
      "stateMutability": "nonpayable",
      "type": "function"
    },
    {
      "inputs": [
        {
          "internalType": "string",
          "name": "_name",
          "type": "string"
        }
      ],
      "name": "setName",
      "outputs": [],
      "stateMutability": "nonpayable",
      "type": "function"
    },
    {
      "inputs": [
        {
          "internalType": "uint256[]",
          "name": "ids",
          "type": "uint256[]"
        }
      ],
      "name": "mintBatch",
      "outputs": [],
      "stateMutability": "payable",
      "type": "function"
    },
    {
      "inputs": [
        {
          "internalType": "uint256",
          "name": "id",
          "type": "uint256"
        },
        {
          "internalType": "bytes",
          "name": "signature",
          "type": "bytes"
        }
      ],
      "name": "mint",
      "outputs": [],
      "stateMutability": "payable",
      "type": "function"
    },
    {
      "inputs": [
        {
          "internalType": "bytes",
          "name": "_signature",
          "type": "bytes"
        }
      ],
      "name": "isSignatureValid",
      "outputs": [
        {
          "internalType": "bool",
          "name": "",
          "type": "bool"
        }
      ],
      "stateMutability": "view",
      "type": "function"
    }
  ],
  "bytecode": "0x60806040523480156200001157600080fd5b506040518060600160405280603f81526020016200438f603f91396200004c62000040620000aa60201b60201c565b620000b260201b60201c565b6200005d816200017660201b60201c565b50620000a46040518060400160405280601581526020017f5465737420566964656f20436f6c6c656374696f6e00000000000000000000008152506200019260201b60201c565b620003fe565b600033905090565b60008060009054906101000a900473ffffffffffffffffffffffffffffffffffffffff169050816000806101000a81548173ffffffffffffffffffffffffffffffffffffffff021916908373ffffffffffffffffffffffffffffffffffffffff1602179055508173ffffffffffffffffffffffffffffffffffffffff168173ffffffffffffffffffffffffffffffffffffffff167f8be0079c531659141344cd1fd0a4f28419497f9722a3daafe3b4186f6b6457e060405160405180910390a35050565b80600390805190602001906200018e92919062000266565b5050565b620001a2620000aa60201b60201c565b73ffffffffffffffffffffffffffffffffffffffff16620001c86200023d60201b60201c565b73ffffffffffffffffffffffffffffffffffffffff161462000221576040517f08c379a0000000000000000000000000000000000000000000000000000000008152600401620002189062000377565b60405180910390fd5b80600590805190602001906200023992919062000266565b5050565b60008060009054906101000a900473ffffffffffffffffffffffffffffffffffffffff16905090565b8280546200027490620003c8565b90600052602060002090601f016020900481019282620002985760008555620002e4565b82601f10620002b357805160ff1916838001178555620002e4565b82800160010185558215620002e4579182015b82811115620002e3578251825591602001919060010190620002c6565b5b509050620002f39190620002f7565b5090565b5b8082111562000312576000816000905550600101620002f8565b5090565b600082825260208201905092915050565b7f4f776e61626c653a2063616c6c6572206973206e6f7420746865206f776e6572600082015250565b60006200035f60208362000316565b91506200036c8262000327565b602082019050919050565b60006020820190508181036000830152620003928162000350565b9050919050565b7f4e487b7100000000000000000000000000000000000000000000000000000000600052602260045260246000fd5b60006002820490506001821680620003e157607f821691505b60208210811415620003f857620003f762000399565b5b50919050565b613f81806200040e6000396000f3fe6080604052600436106100fd5760003560e01c80638da5cb5b11610095578063db7fd40811610064578063db7fd40814610344578063e985e9c514610360578063f242432a1461039d578063f2fde38b146103c6578063ffb2b55a146103ef576100fd565b80638da5cb5b1461028a578063a22cb465146102b5578063c146318e146102de578063c47f00271461031b576100fd565b80630e89341c116100d15780630e89341c146101d05780632eb2c2d61461020d5780634e1273f414610236578063715018a614610273576100fd565b8062fdd58e1461010257806301ffc9a71461013f57806302fe53051461017c57806306fdde03146101a5575b600080fd5b34801561010e57600080fd5b5061012960048036038101906101249190612523565b61040b565b6040516101369190612572565b60405180910390f35b34801561014b57600080fd5b50610166600480360381019061016191906125e5565b6104d5565b604051610173919061262d565b60405180910390f35b34801561018857600080fd5b506101a3600480360381019061019e919061278e565b6105b7565b005b3480156101b157600080fd5b506101ba61063f565b6040516101c7919061285f565b60405180910390f35b3480156101dc57600080fd5b506101f760048036038101906101f29190612881565b6106cd565b604051610204919061285f565b60405180910390f35b34801561021957600080fd5b50610234600480360381019061022f9190612a17565b610761565b005b34801561024257600080fd5b5061025d60048036038101906102589190612ba9565b610802565b60405161026a9190612cdf565b60405180910390f35b34801561027f57600080fd5b5061028861091b565b005b34801561029657600080fd5b5061029f6109a3565b6040516102ac9190612d10565b60405180910390f35b3480156102c157600080fd5b506102dc60048036038101906102d79190612d57565b6109cc565b005b3480156102ea57600080fd5b5061030560048036038101906103009190612d97565b6109e2565b604051610312919061262d565b60405180910390f35b34801561032757600080fd5b50610342600480360381019061033d919061278e565b610a7d565b005b61035e60048036038101906103599190612de0565b610b13565b005b34801561036c57600080fd5b5061038760048036038101906103829190612e3c565b610c4e565b604051610394919061262d565b60405180910390f35b3480156103a957600080fd5b506103c460048036038101906103bf9190612e7c565b610ce2565b005b3480156103d257600080fd5b506103ed60048036038101906103e89190612f13565b610d83565b005b61040960048036038101906104049190612f40565b610e7b565b005b60008073ffffffffffffffffffffffffffffffffffffffff168373ffffffffffffffffffffffffffffffffffffffff16141561047c576040517f08c379a000000000000000000000000000000000000000000000000000000000815260040161047390612ffb565b60405180910390fd5b6001600083815260200190815260200160002060008473ffffffffffffffffffffffffffffffffffffffff1673ffffffffffffffffffffffffffffffffffffffff16815260200190815260200160002054905092915050565b60007fd9b67a26000000000000000000000000000000000000000000000000000000007bffffffffffffffffffffffffffffffffffffffffffffffffffffffff1916827bffffffffffffffffffffffffffffffffffffffffffffffffffffffff191614806105a057507f0e89341c000000000000000000000000000000000000000000000000000000007bffffffffffffffffffffffffffffffffffffffffffffffffffffffff1916827bffffffffffffffffffffffffffffffffffffffffffffffffffffffff1916145b806105b057506105af82610f59565b5b9050919050565b6105bf610fc3565b73ffffffffffffffffffffffffffffffffffffffff166105dd6109a3565b73ffffffffffffffffffffffffffffffffffffffff1614610633576040517f08c379a000000000000000000000000000000000000000000000000000000000815260040161062a90613067565b60405180910390fd5b61063c81610fcb565b50565b6005805461064c906130b6565b80601f0160208091040260200160405190810160405280929190818152602001828054610678906130b6565b80156106c55780601f1061069a576101008083540402835291602001916106c5565b820191906000526020600020905b8154815290600101906020018083116106a857829003601f168201915b505050505081565b6060600380546106dc906130b6565b80601f0160208091040260200160405190810160405280929190818152602001828054610708906130b6565b80156107555780601f1061072a57610100808354040283529160200191610755565b820191906000526020600020905b81548152906001019060200180831161073857829003601f168201915b50505050509050919050565b610769610fc3565b73ffffffffffffffffffffffffffffffffffffffff168573ffffffffffffffffffffffffffffffffffffffff1614806107af57506107ae856107a9610fc3565b610c4e565b5b6107ee576040517f08c379a00000000000000000000000000000000000000000000000000000000081526004016107e59061315a565b60405180910390fd5b6107fb8585858585610fe5565b5050505050565b60608151835114610848576040517f08c379a000000000000000000000000000000000000000000000000000000000815260040161083f906131ec565b60405180910390fd5b6000835167ffffffffffffffff81111561086557610864612663565b5b6040519080825280602002602001820160405280156108935781602001602082028036833780820191505090505b50905060005b8451811015610910576108e08582815181106108b8576108b761320c565b5b60200260200101518583815181106108d3576108d261320c565b5b602002602001015161040b565b8282815181106108f3576108f261320c565b5b602002602001018181525050806109099061326a565b9050610899565b508091505092915050565b610923610fc3565b73ffffffffffffffffffffffffffffffffffffffff166109416109a3565b73ffffffffffffffffffffffffffffffffffffffff1614610997576040517f08c379a000000000000000000000000000000000000000000000000000000000815260040161098e90613067565b60405180910390fd5b6109a160006112fc565b565b60008060009054906101000a900473ffffffffffffffffffffffffffffffffffffffff16905090565b6109de6109d7610fc3565b83836113c0565b5050565b6000806040516020016109f49061330a565b6040516020818303038152906040528051906020012090506000610a2984610a1b8461152d565b61155d90919063ffffffff16565b90508073ffffffffffffffffffffffffffffffffffffffff16610a4a6109a3565b73ffffffffffffffffffffffffffffffffffffffff161415610a7157600192505050610a78565b6000925050505b919050565b610a85610fc3565b73ffffffffffffffffffffffffffffffffffffffff16610aa36109a3565b73ffffffffffffffffffffffffffffffffffffffff1614610af9576040517f08c379a0000000000000000000000000000000000000000000000000000000008152600401610af090613067565b60405180910390fd5b8060059080519060200190610b0f9291906123d8565b5050565b610b1b610fc3565b73ffffffffffffffffffffffffffffffffffffffff16610b396109a3565b73ffffffffffffffffffffffffffffffffffffffff1614610b8f576040517f08c379a0000000000000000000000000000000000000000000000000000000008152600401610b8690613067565b60405180910390fd5b60011515610b9c826109e2565b151514610bde576040517f08c379a0000000000000000000000000000000000000000000000000000000008152600401610bd59061336b565b60405180910390fd5b61271082111580610bef5750600082145b610c2e576040517f08c379a0000000000000000000000000000000000000000000000000000000008152600401610c25906133fd565b60405180910390fd5b610c4a3383600160405180602001604052806000815250611584565b5050565b6000600260008473ffffffffffffffffffffffffffffffffffffffff1673ffffffffffffffffffffffffffffffffffffffff16815260200190815260200160002060008373ffffffffffffffffffffffffffffffffffffffff1673ffffffffffffffffffffffffffffffffffffffff16815260200190815260200160002060009054906101000a900460ff16905092915050565b610cea610fc3565b73ffffffffffffffffffffffffffffffffffffffff168573ffffffffffffffffffffffffffffffffffffffff161480610d305750610d2f85610d2a610fc3565b610c4e565b5b610d6f576040517f08c379a0000000000000000000000000000000000000000000000000000000008152600401610d669061348f565b60405180910390fd5b610d7c858585858561171b565b5050505050565b610d8b610fc3565b73ffffffffffffffffffffffffffffffffffffffff16610da96109a3565b73ffffffffffffffffffffffffffffffffffffffff1614610dff576040517f08c379a0000000000000000000000000000000000000000000000000000000008152600401610df690613067565b60405180910390fd5b600073ffffffffffffffffffffffffffffffffffffffff168173ffffffffffffffffffffffffffffffffffffffff161415610e6f576040517f08c379a0000000000000000000000000000000000000000000000000000000008152600401610e6690613521565b60405180910390fd5b610e78816112fc565b50565b610e83610fc3565b73ffffffffffffffffffffffffffffffffffffffff16610ea16109a3565b73ffffffffffffffffffffffffffffffffffffffff1614610ef7576040517f08c379a0000000000000000000000000000000000000000000000000000000008152600401610eee90613067565b60405180910390fd5b606060005b8251811015610f39576001828281518110610f1a57610f1961320c565b5b6020026020010181815250508080610f319061326a565b915050610efc565b50610f55338383604051806020016040528060008152506119a0565b5050565b60007f01ffc9a7000000000000000000000000000000000000000000000000000000007bffffffffffffffffffffffffffffffffffffffffffffffffffffffff1916827bffffffffffffffffffffffffffffffffffffffffffffffffffffffff1916149050919050565b600033905090565b8060039080519060200190610fe19291906123d8565b5050565b8151835114611029576040517f08c379a0000000000000000000000000000000000000000000000000000000008152600401611020906135b3565b60405180910390fd5b600073ffffffffffffffffffffffffffffffffffffffff168473ffffffffffffffffffffffffffffffffffffffff161415611099576040517f08c379a000000000000000000000000000000000000000000000000000000000815260040161109090613645565b60405180910390fd5b60006110a3610fc3565b90506110b3818787878787611bbf565b60005b84518110156112675760008582815181106110d4576110d361320c565b5b6020026020010151905060008583815181106110f3576110f261320c565b5b6020026020010151905060006001600084815260200190815260200160002060008b73ffffffffffffffffffffffffffffffffffffffff1673ffffffffffffffffffffffffffffffffffffffff16815260200190815260200160002054905081811015611195576040517f08c379a000000000000000000000000000000000000000000000000000000000815260040161118c906136d7565b60405180910390fd5b8181036001600085815260200190815260200160002060008c73ffffffffffffffffffffffffffffffffffffffff1673ffffffffffffffffffffffffffffffffffffffff16815260200190815260200160002081905550816001600085815260200190815260200160002060008b73ffffffffffffffffffffffffffffffffffffffff1673ffffffffffffffffffffffffffffffffffffffff168152602001908152602001600020600082825461124c91906136f7565b92505081905550505050806112609061326a565b90506110b6565b508473ffffffffffffffffffffffffffffffffffffffff168673ffffffffffffffffffffffffffffffffffffffff168273ffffffffffffffffffffffffffffffffffffffff167f4a39dc06d4c0dbc64b70af90fd698a233a518aa5d07e595d983b8c0526c8f7fb87876040516112de92919061374d565b60405180910390a46112f4818787878787611bc7565b505050505050565b60008060009054906101000a900473ffffffffffffffffffffffffffffffffffffffff169050816000806101000a81548173ffffffffffffffffffffffffffffffffffffffff021916908373ffffffffffffffffffffffffffffffffffffffff1602179055508173ffffffffffffffffffffffffffffffffffffffff168173ffffffffffffffffffffffffffffffffffffffff167f8be0079c531659141344cd1fd0a4f28419497f9722a3daafe3b4186f6b6457e060405160405180910390a35050565b8173ffffffffffffffffffffffffffffffffffffffff168373ffffffffffffffffffffffffffffffffffffffff16141561142f576040517f08c379a0000000000000000000000000000000000000000000000000000000008152600401611426906137f6565b60405180910390fd5b80600260008573ffffffffffffffffffffffffffffffffffffffff1673ffffffffffffffffffffffffffffffffffffffff16815260200190815260200160002060008473ffffffffffffffffffffffffffffffffffffffff1673ffffffffffffffffffffffffffffffffffffffff16815260200190815260200160002060006101000a81548160ff0219169083151502179055508173ffffffffffffffffffffffffffffffffffffffff168373ffffffffffffffffffffffffffffffffffffffff167f17307eab39ab6107e8899845ad3d59bd9653f200f220920489ca2b5937696c3183604051611520919061262d565b60405180910390a3505050565b600081604051602001611540919061388d565b604051602081830303815290604052805190602001209050919050565b600080600061156c8585611d9f565b9150915061157981611e22565b819250505092915050565b600073ffffffffffffffffffffffffffffffffffffffff168473ffffffffffffffffffffffffffffffffffffffff1614156115f4576040517f08c379a00000000000000000000000000000000000000000000000000000000081526004016115eb90613925565b60405180910390fd5b60006115fe610fc3565b905061161f8160008761161088611ff7565b61161988611ff7565b87611bbf565b826001600086815260200190815260200160002060008773ffffffffffffffffffffffffffffffffffffffff1673ffffffffffffffffffffffffffffffffffffffff168152602001908152602001600020600082825461167f91906136f7565b925050819055508473ffffffffffffffffffffffffffffffffffffffff16600073ffffffffffffffffffffffffffffffffffffffff168273ffffffffffffffffffffffffffffffffffffffff167fc3d58168c5ae7397731d063d5bbf3d657854427343f4c083240f7aacaa2d0f6287876040516116fd929190613945565b60405180910390a461171481600087878787612071565b5050505050565b600073ffffffffffffffffffffffffffffffffffffffff168473ffffffffffffffffffffffffffffffffffffffff16141561178b576040517f08c379a000000000000000000000000000000000000000000000000000000000815260040161178290613645565b60405180910390fd5b6000611795610fc3565b90506117b58187876117a688611ff7565b6117af88611ff7565b87611bbf565b60006001600086815260200190815260200160002060008873ffffffffffffffffffffffffffffffffffffffff1673ffffffffffffffffffffffffffffffffffffffff1681526020019081526020016000205490508381101561184d576040517f08c379a0000000000000000000000000000000000000000000000000000000008152600401611844906136d7565b60405180910390fd5b8381036001600087815260200190815260200160002060008973ffffffffffffffffffffffffffffffffffffffff1673ffffffffffffffffffffffffffffffffffffffff16815260200190815260200160002081905550836001600087815260200190815260200160002060008873ffffffffffffffffffffffffffffffffffffffff1673ffffffffffffffffffffffffffffffffffffffff168152602001908152602001600020600082825461190491906136f7565b925050819055508573ffffffffffffffffffffffffffffffffffffffff168773ffffffffffffffffffffffffffffffffffffffff168373ffffffffffffffffffffffffffffffffffffffff167fc3d58168c5ae7397731d063d5bbf3d657854427343f4c083240f7aacaa2d0f628888604051611981929190613945565b60405180910390a4611997828888888888612071565b50505050505050565b600073ffffffffffffffffffffffffffffffffffffffff168473ffffffffffffffffffffffffffffffffffffffff161415611a10576040517f08c379a0000000000000000000000000000000000000000000000000000000008152600401611a0790613925565b60405180910390fd5b8151835114611a54576040517f08c379a0000000000000000000000000000000000000000000000000000000008152600401611a4b906135b3565b60405180910390fd5b6000611a5e610fc3565b9050611a6f81600087878787611bbf565b60005b8451811015611b2957838181518110611a8e57611a8d61320c565b5b602002602001015160016000878481518110611aad57611aac61320c565b5b6020026020010151815260200190815260200160002060008873ffffffffffffffffffffffffffffffffffffffff1673ffffffffffffffffffffffffffffffffffffffff1681526020019081526020016000206000828254611b0f91906136f7565b925050819055508080611b219061326a565b915050611a72565b508473ffffffffffffffffffffffffffffffffffffffff16600073ffffffffffffffffffffffffffffffffffffffff168273ffffffffffffffffffffffffffffffffffffffff167f4a39dc06d4c0dbc64b70af90fd698a233a518aa5d07e595d983b8c0526c8f7fb8787604051611ba192919061374d565b60405180910390a4611bb881600087878787611bc7565b5050505050565b505050505050565b611be68473ffffffffffffffffffffffffffffffffffffffff16612249565b15611d97578373ffffffffffffffffffffffffffffffffffffffff1663bc197c8187878686866040518663ffffffff1660e01b8152600401611c2c9594939291906139c3565b6020604051808303816000875af1925050508015611c6857506040513d601f19601f82011682018060405250810190611c659190613a40565b60015b611d0e57611c74613a7a565b806308c379a01415611cd15750611c89613a9c565b80611c945750611cd3565b806040517f08c379a0000000000000000000000000000000000000000000000000000000008152600401611cc8919061285f565b60405180910390fd5b505b6040517f08c379a0000000000000000000000000000000000000000000000000000000008152600401611d0590613ba4565b60405180910390fd5b63bc197c8160e01b7bffffffffffffffffffffffffffffffffffffffffffffffffffffffff1916817bffffffffffffffffffffffffffffffffffffffffffffffffffffffff191614611d95576040517f08c379a0000000000000000000000000000000000000000000000000000000008152600401611d8c90613c36565b60405180910390fd5b505b505050505050565b600080604183511415611de15760008060006020860151925060408601519150606086015160001a9050611dd58782858561226c565b94509450505050611e1b565b604083511415611e12576000806020850151915060408501519050611e07868383612379565b935093505050611e1b565b60006002915091505b9250929050565b60006004811115611e3657611e35613c56565b5b816004811115611e4957611e48613c56565b5b1415611e5457611ff4565b60016004811115611e6857611e67613c56565b5b816004811115611e7b57611e7a613c56565b5b1415611ebc576040517f08c379a0000000000000000000000000000000000000000000000000000000008152600401611eb390613cd1565b60405180910390fd5b60026004811115611ed057611ecf613c56565b5b816004811115611ee357611ee2613c56565b5b1415611f24576040517f08c379a0000000000000000000000000000000000000000000000000000000008152600401611f1b90613d3d565b60405180910390fd5b60036004811115611f3857611f37613c56565b5b816004811115611f4b57611f4a613c56565b5b1415611f8c576040517f08c379a0000000000000000000000000000000000000000000000000000000008152600401611f8390613dcf565b60405180910390fd5b600480811115611f9f57611f9e613c56565b5b816004811115611fb257611fb1613c56565b5b1415611ff3576040517f08c379a0000000000000000000000000000000000000000000000000000000008152600401611fea90613e61565b60405180910390fd5b5b50565b60606000600167ffffffffffffffff81111561201657612015612663565b5b6040519080825280602002602001820160405280156120445781602001602082028036833780820191505090505b509050828160008151811061205c5761205b61320c565b5b60200260200101818152505080915050919050565b6120908473ffffffffffffffffffffffffffffffffffffffff16612249565b15612241578373ffffffffffffffffffffffffffffffffffffffff1663f23a6e6187878686866040518663ffffffff1660e01b81526004016120d6959493929190613e81565b6020604051808303816000875af192505050801561211257506040513d601f19601f8201168201806040525081019061210f9190613a40565b60015b6121b85761211e613a7a565b806308c379a0141561217b5750612133613a9c565b8061213e575061217d565b806040517f08c379a0000000000000000000000000000000000000000000000000000000008152600401612172919061285f565b60405180910390fd5b505b6040517f08c379a00000000000000000000000000000000000000000000000000000000081526004016121af90613ba4565b60405180910390fd5b63f23a6e6160e01b7bffffffffffffffffffffffffffffffffffffffffffffffffffffffff1916817bffffffffffffffffffffffffffffffffffffffffffffffffffffffff19161461223f576040517f08c379a000000000000000000000000000000000000000000000000000000000815260040161223690613c36565b60405180910390fd5b505b505050505050565b6000808273ffffffffffffffffffffffffffffffffffffffff163b119050919050565b6000807f7fffffffffffffffffffffffffffffff5d576e7357a4501ddfe92f46681b20a08360001c11156122a7576000600391509150612370565b601b8560ff16141580156122bf5750601c8560ff1614155b156122d1576000600491509150612370565b6000600187878787604051600081526020016040526040516122f69493929190613f06565b6020604051602081039080840390855afa158015612318573d6000803e3d6000fd5b505050602060405103519050600073ffffffffffffffffffffffffffffffffffffffff168173ffffffffffffffffffffffffffffffffffffffff16141561236757600060019250925050612370565b80600092509250505b94509492505050565b60008060007f7fffffffffffffffffffffffffffffffffffffffffffffffffffffffffffffff60001b841690506000601b60ff8660001c901c6123bc91906136f7565b90506123ca8782888561226c565b935093505050935093915050565b8280546123e4906130b6565b90600052602060002090601f016020900481019282612406576000855561244d565b82601f1061241f57805160ff191683800117855561244d565b8280016001018555821561244d579182015b8281111561244c578251825591602001919060010190612431565b5b50905061245a919061245e565b5090565b5b8082111561247757600081600090555060010161245f565b5090565b6000604051905090565b600080fd5b600080fd5b600073ffffffffffffffffffffffffffffffffffffffff82169050919050565b60006124ba8261248f565b9050919050565b6124ca816124af565b81146124d557600080fd5b50565b6000813590506124e7816124c1565b92915050565b6000819050919050565b612500816124ed565b811461250b57600080fd5b50565b60008135905061251d816124f7565b92915050565b6000806040838503121561253a57612539612485565b5b6000612548858286016124d8565b92505060206125598582860161250e565b9150509250929050565b61256c816124ed565b82525050565b60006020820190506125876000830184612563565b92915050565b60007fffffffff0000000000000000000000000000000000000000000000000000000082169050919050565b6125c28161258d565b81146125cd57600080fd5b50565b6000813590506125df816125b9565b92915050565b6000602082840312156125fb576125fa612485565b5b6000612609848285016125d0565b91505092915050565b60008115159050919050565b61262781612612565b82525050565b6000602082019050612642600083018461261e565b92915050565b600080fd5b600080fd5b6000601f19601f8301169050919050565b7f4e487b7100000000000000000000000000000000000000000000000000000000600052604160045260246000fd5b61269b82612652565b810181811067ffffffffffffffff821117156126ba576126b9612663565b5b80604052505050565b60006126cd61247b565b90506126d98282612692565b919050565b600067ffffffffffffffff8211156126f9576126f8612663565b5b61270282612652565b9050602081019050919050565b82818337600083830152505050565b600061273161272c846126de565b6126c3565b90508281526020810184848401111561274d5761274c61264d565b5b61275884828561270f565b509392505050565b600082601f83011261277557612774612648565b5b813561278584826020860161271e565b91505092915050565b6000602082840312156127a4576127a3612485565b5b600082013567ffffffffffffffff8111156127c2576127c161248a565b5b6127ce84828501612760565b91505092915050565b600081519050919050565b600082825260208201905092915050565b60005b838110156128115780820151818401526020810190506127f6565b83811115612820576000848401525b50505050565b6000612831826127d7565b61283b81856127e2565b935061284b8185602086016127f3565b61285481612652565b840191505092915050565b600060208201905081810360008301526128798184612826565b905092915050565b60006020828403121561289757612896612485565b5b60006128a58482850161250e565b91505092915050565b600067ffffffffffffffff8211156128c9576128c8612663565b5b602082029050602081019050919050565b600080fd5b60006128f26128ed846128ae565b6126c3565b90508083825260208201905060208402830185811115612915576129146128da565b5b835b8181101561293e578061292a888261250e565b845260208401935050602081019050612917565b5050509392505050565b600082601f83011261295d5761295c612648565b5b813561296d8482602086016128df565b91505092915050565b600067ffffffffffffffff82111561299157612990612663565b5b61299a82612652565b9050602081019050919050565b60006129ba6129b584612976565b6126c3565b9050828152602081018484840111156129d6576129d561264d565b5b6129e184828561270f565b509392505050565b600082601f8301126129fe576129fd612648565b5b8135612a0e8482602086016129a7565b91505092915050565b600080600080600060a08688031215612a3357612a32612485565b5b6000612a41888289016124d8565b9550506020612a52888289016124d8565b945050604086013567ffffffffffffffff811115612a7357612a7261248a565b5b612a7f88828901612948565b935050606086013567ffffffffffffffff811115612aa057612a9f61248a565b5b612aac88828901612948565b925050608086013567ffffffffffffffff811115612acd57612acc61248a565b5b612ad9888289016129e9565b9150509295509295909350565b600067ffffffffffffffff821115612b0157612b00612663565b5b602082029050602081019050919050565b6000612b25612b2084612ae6565b6126c3565b90508083825260208201905060208402830185811115612b4857612b476128da565b5b835b81811015612b715780612b5d88826124d8565b845260208401935050602081019050612b4a565b5050509392505050565b600082601f830112612b9057612b8f612648565b5b8135612ba0848260208601612b12565b91505092915050565b60008060408385031215612bc057612bbf612485565b5b600083013567ffffffffffffffff811115612bde57612bdd61248a565b5b612bea85828601612b7b565b925050602083013567ffffffffffffffff811115612c0b57612c0a61248a565b5b612c1785828601612948565b9150509250929050565b600081519050919050565b600082825260208201905092915050565b6000819050602082019050919050565b612c56816124ed565b82525050565b6000612c688383612c4d565b60208301905092915050565b6000602082019050919050565b6000612c8c82612c21565b612c968185612c2c565b9350612ca183612c3d565b8060005b83811015612cd2578151612cb98882612c5c565b9750612cc483612c74565b925050600181019050612ca5565b5085935050505092915050565b60006020820190508181036000830152612cf98184612c81565b905092915050565b612d0a816124af565b82525050565b6000602082019050612d256000830184612d01565b92915050565b612d3481612612565b8114612d3f57600080fd5b50565b600081359050612d5181612d2b565b92915050565b60008060408385031215612d6e57612d6d612485565b5b6000612d7c858286016124d8565b9250506020612d8d85828601612d42565b9150509250929050565b600060208284031215612dad57612dac612485565b5b600082013567ffffffffffffffff811115612dcb57612dca61248a565b5b612dd7848285016129e9565b91505092915050565b60008060408385031215612df757612df6612485565b5b6000612e058582860161250e565b925050602083013567ffffffffffffffff811115612e2657612e2561248a565b5b612e32858286016129e9565b9150509250929050565b60008060408385031215612e5357612e52612485565b5b6000612e61858286016124d8565b9250506020612e72858286016124d8565b9150509250929050565b600080600080600060a08688031215612e9857612e97612485565b5b6000612ea6888289016124d8565b9550506020612eb7888289016124d8565b9450506040612ec88882890161250e565b9350506060612ed98882890161250e565b925050608086013567ffffffffffffffff811115612efa57612ef961248a565b5b612f06888289016129e9565b9150509295509295909350565b600060208284031215612f2957612f28612485565b5b6000612f37848285016124d8565b91505092915050565b600060208284031215612f5657612f55612485565b5b600082013567ffffffffffffffff811115612f7457612f7361248a565b5b612f8084828501612948565b91505092915050565b7f455243313135353a2062616c616e636520717565727920666f7220746865207a60008201527f65726f2061646472657373000000000000000000000000000000000000000000602082015250565b6000612fe5602b836127e2565b9150612ff082612f89565b604082019050919050565b6000602082019050818103600083015261301481612fd8565b9050919050565b7f4f776e61626c653a2063616c6c6572206973206e6f7420746865206f776e6572600082015250565b60006130516020836127e2565b915061305c8261301b565b602082019050919050565b6000602082019050818103600083015261308081613044565b9050919050565b7f4e487b7100000000000000000000000000000000000000000000000000000000600052602260045260246000fd5b600060028204905060018216806130ce57607f821691505b602082108114156130e2576130e1613087565b5b50919050565b7f455243313135353a207472616e736665722063616c6c6572206973206e6f742060008201527f6f776e6572206e6f7220617070726f7665640000000000000000000000000000602082015250565b60006131446032836127e2565b915061314f826130e8565b604082019050919050565b6000602082019050818103600083015261317381613137565b9050919050565b7f455243313135353a206163636f756e747320616e6420696473206c656e67746860008201527f206d69736d617463680000000000000000000000000000000000000000000000602082015250565b60006131d66029836127e2565b91506131e18261317a565b604082019050919050565b60006020820190508181036000830152613205816131c9565b9050919050565b7f4e487b7100000000000000000000000000000000000000000000000000000000600052603260045260246000fd5b7f4e487b7100000000000000000000000000000000000000000000000000000000600052601160045260246000fd5b6000613275826124ed565b91507fffffffffffffffffffffffffffffffffffffffffffffffffffffffffffffffff8214156132a8576132a761323b565b5b600182019050919050565b600081905092915050565b7f3132333435360000000000000000000000000000000000000000000000000000600082015250565b60006132f46006836132b3565b91506132ff826132be565b600682019050919050565b6000613315826132e7565b9150819050919050565b7f496e76616c6964205369676e6174757265000000000000000000000000000000600082015250565b60006133556011836127e2565b91506133608261331f565b602082019050919050565b6000602082019050818103600083015261338481613348565b9050919050565b7f546f6b656e2049642073686f756c6420626520696e207468652072616e67652060008201527f30203c2078203c3d203130303030000000000000000000000000000000000000602082015250565b60006133e7602e836127e2565b91506133f28261338b565b604082019050919050565b60006020820190508181036000830152613416816133da565b9050919050565b7f455243313135353a2063616c6c6572206973206e6f74206f776e6572206e6f7260008201527f20617070726f7665640000000000000000000000000000000000000000000000602082015250565b60006134796029836127e2565b91506134848261341d565b604082019050919050565b600060208201905081810360008301526134a88161346c565b9050919050565b7f4f776e61626c653a206e6577206f776e657220697320746865207a65726f206160008201527f6464726573730000000000000000000000000000000000000000000000000000602082015250565b600061350b6026836127e2565b9150613516826134af565b604082019050919050565b6000602082019050818103600083015261353a816134fe565b9050919050565b7f455243313135353a2069647320616e6420616d6f756e7473206c656e6774682060008201527f6d69736d61746368000000000000000000000000000000000000000000000000602082015250565b600061359d6028836127e2565b91506135a882613541565b604082019050919050565b600060208201905081810360008301526135cc81613590565b9050919050565b7f455243313135353a207472616e7366657220746f20746865207a65726f20616460008201527f6472657373000000000000000000000000000000000000000000000000000000602082015250565b600061362f6025836127e2565b915061363a826135d3565b604082019050919050565b6000602082019050818103600083015261365e81613622565b9050919050565b7f455243313135353a20696e73756666696369656e742062616c616e636520666f60008201527f72207472616e7366657200000000000000000000000000000000000000000000602082015250565b60006136c1602a836127e2565b91506136cc82613665565b604082019050919050565b600060208201905081810360008301526136f0816136b4565b9050919050565b6000613702826124ed565b915061370d836124ed565b9250827fffffffffffffffffffffffffffffffffffffffffffffffffffffffffffffffff038211156137425761374161323b565b5b828201905092915050565b600060408201905081810360008301526137678185612c81565b9050818103602083015261377b8184612c81565b90509392505050565b7f455243313135353a2073657474696e6720617070726f76616c2073746174757360008201527f20666f722073656c660000000000000000000000000000000000000000000000602082015250565b60006137e06029836127e2565b91506137eb82613784565b604082019050919050565b6000602082019050818103600083015261380f816137d3565b9050919050565b7f19457468657265756d205369676e6564204d6573736167653a0a333200000000600082015250565b600061384c601c836132b3565b915061385782613816565b601c82019050919050565b6000819050919050565b6000819050919050565b61388761388282613862565b61386c565b82525050565b60006138988261383f565b91506138a48284613876565b60208201915081905092915050565b7f455243313135353a206d696e7420746f20746865207a65726f2061646472657360008201527f7300000000000000000000000000000000000000000000000000000000000000602082015250565b600061390f6021836127e2565b915061391a826138b3565b604082019050919050565b6000602082019050818103600083015261393e81613902565b9050919050565b600060408201905061395a6000830185612563565b6139676020830184612563565b9392505050565b600081519050919050565b600082825260208201905092915050565b60006139958261396e565b61399f8185613979565b93506139af8185602086016127f3565b6139b881612652565b840191505092915050565b600060a0820190506139d86000830188612d01565b6139e56020830187612d01565b81810360408301526139f78186612c81565b90508181036060830152613a0b8185612c81565b90508181036080830152613a1f818461398a565b90509695505050505050565b600081519050613a3a816125b9565b92915050565b600060208284031215613a5657613a55612485565b5b6000613a6484828501613a2b565b91505092915050565b60008160e01c9050919050565b600060033d1115613a995760046000803e613a96600051613a6d565b90505b90565b600060443d1015613aac57613b2f565b613ab461247b565b60043d036004823e80513d602482011167ffffffffffffffff82111715613adc575050613b2f565b808201805167ffffffffffffffff811115613afa5750505050613b2f565b80602083010160043d038501811115613b17575050505050613b2f565b613b2682602001850186612692565b82955050505050505b90565b7f455243313135353a207472616e7366657220746f206e6f6e204552433131353560008201527f526563656976657220696d706c656d656e746572000000000000000000000000602082015250565b6000613b8e6034836127e2565b9150613b9982613b32565b604082019050919050565b60006020820190508181036000830152613bbd81613b81565b9050919050565b7f455243313135353a204552433131353552656365697665722072656a6563746560008201527f6420746f6b656e73000000000000000000000000000000000000000000000000602082015250565b6000613c206028836127e2565b9150613c2b82613bc4565b604082019050919050565b60006020820190508181036000830152613c4f81613c13565b9050919050565b7f4e487b7100000000000000000000000000000000000000000000000000000000600052602160045260246000fd5b7f45434453413a20696e76616c6964207369676e61747572650000000000000000600082015250565b6000613cbb6018836127e2565b9150613cc682613c85565b602082019050919050565b60006020820190508181036000830152613cea81613cae565b9050919050565b7f45434453413a20696e76616c6964207369676e6174757265206c656e67746800600082015250565b6000613d27601f836127e2565b9150613d3282613cf1565b602082019050919050565b60006020820190508181036000830152613d5681613d1a565b9050919050565b7f45434453413a20696e76616c6964207369676e6174757265202773272076616c60008201527f7565000000000000000000000000000000000000000000000000000000000000602082015250565b6000613db96022836127e2565b9150613dc482613d5d565b604082019050919050565b60006020820190508181036000830152613de881613dac565b9050919050565b7f45434453413a20696e76616c6964207369676e6174757265202776272076616c60008201527f7565000000000000000000000000000000000000000000000000000000000000602082015250565b6000613e4b6022836127e2565b9150613e5682613def565b604082019050919050565b60006020820190508181036000830152613e7a81613e3e565b9050919050565b600060a082019050613e966000830188612d01565b613ea36020830187612d01565b613eb06040830186612563565b613ebd6060830185612563565b8181036080830152613ecf818461398a565b90509695505050505050565b613ee481613862565b82525050565b600060ff82169050919050565b613f0081613eea565b82525050565b6000608082019050613f1b6000830187613edb565b613f286020830186613ef7565b613f356040830185613edb565b613f426060830184613edb565b9594505050505056fea2646970667358221220a63245c2b94e7c02d57b9cc49e80c697947a84b4a05029c9d7988bbd233c169964736f6c634300080b0033697066733a2f2f516d593573323271384a4178557a586a736770704232653542675a3662473876546e7633336233727844547455592f7b69647d2e6a736f6e",
  "immutableReferences": {},
  "source": "// SPDX-License-Identifier: MIT\npragma solidity >=0.4.22 <0.9.0;\n\nimport '@openzeppelin/contracts/token/ERC1155/ERC1155.sol';\nimport '@openzeppelin/contracts/access/Ownable.sol';\nimport \"@openzeppelin/contracts/utils/cryptography/ECDSA.sol\";\n\ncontract VideoNFT is Ownable, ERC1155 {\n    // Base URI\n    string private baseURI;\n    string public name;\n    using ECDSA for bytes32;\n\n    constructor()\n        ERC1155(\n            'ipfs://QmY5s22q8JAxUzXjsgppB2e5BgZ6bG8vTnv33b3rxDTtUY/{id}.json'\n        )\n    {\n        setName('Test Video Collection');\n    }\n\n    function setURI(string memory _newuri) public onlyOwner {\n        _setURI(_newuri);\n    }\n\n    function setName(string memory _name) public onlyOwner {\n        name = _name;\n    }\n\n    function mintBatch(uint256[] memory ids)\n        public\n        onlyOwner\n        payable\n    {\n        uint256[] memory amounts;\n        for (uint256 i = 0; i < ids.length; i++) {\n            amounts[i] = 1;\n        }\n        _mintBatch(msg.sender, ids, amounts, '');\n    }\n\n    function mint(uint256 id,bytes memory signature) public onlyOwner payable {\n        require(isSignatureValid(signature) == true, \"Invalid Signature\");\n        require(id <= 10000 || id == 0, \"Token Id should be in the range 0 < x <= 10000\");\n        _mint(msg.sender, id, 1, '');\n    }\n\n    function isSignatureValid(bytes memory _signature)\n        public\n        view\n        returns ( bool)\n    {\n        bytes32 messagehash = keccak256(\n            abi.encodePacked('123456')\n        );\n        address signer = messagehash.toEthSignedMessageHash().recover(\n            _signature\n        );\n\n        if (owner() == signer) {\n            return true;\n        } else {\n            return false;\n        }\n    }\n}\n",
  "sourcePath": "C:\\Users\\nikhilkb.finesse\\OneDrive - GEMS Education\\Desktop\\test\\contracts\\VideoNFT.sol",
  "compiler": {
    "name": "solc",
    "version": "0.8.11+commit.d7f03943.Emscripten.clang"
  },
  "schemaVersion": "3.4.5",
  "updatedAt": "2022-02-25T19:43:12.996Z",
  "devdoc": {
    "kind": "dev",
    "methods": {
      "balanceOf(address,uint256)": {
        "details": "See {IERC1155-balanceOf}. Requirements: - `account` cannot be the zero address."
      },
      "balanceOfBatch(address[],uint256[])": {
        "details": "See {IERC1155-balanceOfBatch}. Requirements: - `accounts` and `ids` must have the same length."
      },
      "isApprovedForAll(address,address)": {
        "details": "See {IERC1155-isApprovedForAll}."
      },
      "owner()": {
        "details": "Returns the address of the current owner."
      },
      "renounceOwnership()": {
        "details": "Leaves the contract without owner. It will not be possible to call `onlyOwner` functions anymore. Can only be called by the current owner. NOTE: Renouncing ownership will leave the contract without an owner, thereby removing any functionality that is only available to the owner."
      },
      "safeBatchTransferFrom(address,address,uint256[],uint256[],bytes)": {
        "details": "See {IERC1155-safeBatchTransferFrom}."
      },
      "safeTransferFrom(address,address,uint256,uint256,bytes)": {
        "details": "See {IERC1155-safeTransferFrom}."
      },
      "setApprovalForAll(address,bool)": {
        "details": "See {IERC1155-setApprovalForAll}."
      },
      "supportsInterface(bytes4)": {
        "details": "See {IERC165-supportsInterface}."
      },
      "transferOwnership(address)": {
        "details": "Transfers ownership of the contract to a new account (`newOwner`). Can only be called by the current owner."
      },
      "uri(uint256)": {
        "details": "See {IERC1155MetadataURI-uri}. This implementation returns the same URI for *all* token types. It relies on the token type ID substitution mechanism https://eips.ethereum.org/EIPS/eip-1155#metadata[defined in the EIP]. Clients calling this function must replace the `\\{id\\}` substring with the actual token type ID."
      }
    },
    "version": 1
  },
  "userdoc": {
    "kind": "user",
    "methods": {},
    "version": 1
  }
}